S00D0000494F4953522E7372656391
S113000045C000006DC00000A6C000005CC0000038
S11300105AC0000058C0000056C0000054C0000080
S113002052C0000050C000004EC000004CC0000090
S11300304AC0000048C0000046C0000044C00000A0
S113004042C0000040C000003EC000003CC00000B0
S11300503AC0000038C0000036C0000034C00000C0
S113006032C0000030C000002EC000002CC00000D0
S11300702AC0000028C0000026C0000024C00000E0
S113008022C0000020C000001EC0000011241FBEBA
S1130090CFEFD0E1DEBFCDBF11E0A0E0B1E0EAEEEA
S11300A0F1E000E00BBF02C007900D92A031B10750
S11300B0D9F721E0A0E1B1E001C01D92A231B2075D
S11300C0E1F784D090C09CCF8031910530F4FC01DD
S11300D0E050FF4F808188BB089589E788BB08956D
S11300E01F920F920FB60F9211240BB60F922F93FB
S11300F03F934F935F936F937F938F939F93AF93AC
S1130100BF93EF93FF93819B05C01092110110924E
S1130110100109C0809110019091110101969093F2
S11301201101809310018091100190911101CCDF95
S1130130FF91EF91BF91AF919F918F917F916F91BB
S11301405F914F913F912F910F900BBE0F900FBE77
S11301500F901F9018951F920F920FB60F921124B3
S11301600BB60F922F933F934F935F936F937F93AD
S11301708F939F93AF93BF93EF93FF93809B05C09F
S1130180109211011092100109C0809110019091F8
S11301901101019790931101809310018091100136
S11301A09091110191DFFF91EF91BF91AF919F91D8
S11301B08F917F916F915F914F913F912F910F900C
S11301C00BBE0F900FBE0F901F9018958FEF87BB3B
S11301D011BAEAE6F0E080818B60808389B783609E
S10D01E089BF7894FFCFF894FFCF95
S11301EA3F065B4F666D7D077F6F77FC395E7971D9
S9030000FC
