:1000000045C0000053C0000051C000004FC00000B8
:100010004DC000004BC0000049C0000047C00000B8
:1000200045C0000043C0000041C000003FC00000C8
:100030003DC000003BC0000039C0000037C00000D8
:1000400035C0000033C0000031C000002FC00000E8
:100050002DC000002BC0000029C0000027C00000F8
:1000600025C0000023C0000021C000001FC0000008
:100070001DC000001BC0000019C0000017C0000018
:1000800015C0000013C0000011C0000011241FBEE5
:10009000CFEFD0E1DEBFCDBF21E0A0E0B1E001C0F5
:1000A0001D92A030B207E1F758D097C0A9CFAB9A04
:1000B00089EF90E00197F1F700C00000AB9889EF5D
:1000C00090E00197F1F700C000000895CF93C82F8A
:1000D00085BBEDDFC295C07FC5BBE9DFCF91089539
:1000E00082E0F4CF08958FEF84BB15BA80E285BB20
:1000F000DEDF88E2EBDF8FE0E9DF86E0E7DF82E04A
:10010000E5CF0895CF93C82F85BBAA9AD0DFC295BB
:10011000C07FC5BBAA9ACBDFCF910895CF93DF9361
:10012000EC018881882329F02196ECDF89918111E7
:10013000FCCFDF91CF910895181619066CF420E0DA
:1001400030E0EFECF7E03197F1F700C000002F5FEF
:100150003F4F28173907A9F70895CF93DF93CDB7FD
:10016000DEB760970FB6F894DEBF0FBECDBF8FEF3E
:1001700087BBB9DF0FD017D082E390E0DDDF88B313
:10018000805888BBCE01019616D0AADFCE01019619
:10019000C5DFF2CF109290008FEC89B986E0809392
:1001A00095001AB808958AB188618AB908955F9B4D
:1001B000FECF8CB108950F931F93CF93DF93EC0183
:1001C000F6DF8A3011F08993FBCF188280E090E04F
:0E01D000DF91CF911F910F910895F894FFCF0A
:00000001FF
