S00A000042332E73726563A5
S113000045C000004BC0000049C0000047C00000CC
S113001045C0000043C0000041C000003FC00000D4
S11300203DC000003BC0000039C0000037C00000E4
S113003035C0000033C0000031C000002FC00000F4
S11300402DC000002BC0000029C0000027C0000004
S113005025C0000023C0000021C000001FC0000014
S11300601DC000001BC0000019C0000017C0000024
S113007015C0000013C0000011C000000FC0000034
S11300800DC000000BC0000009C0000011241FBEF9
S1130090CFEFD0E1DEBFCDBF96D0D6C0B1CF18161A
S11300A019066CF420E030E0E9EFF0E03197F1F765
S11300B000C000002F5F3F4F28173907A9F70895A4
S11300C08FEF87BBBB98C09A82E58DB908958FB92D
S11300D0779BFECF089598B321E030E002C0220F51
S11300E0331F8A95E2F72095292328BB089598B3F6
S11300F021E030E002C0220F331F8A95E2F7292B5A
S113010028BB089580E0E7DF89E0E1DF8FEFDFDFE0
S113011080E0EDDF80E0DFDF8AE0D9DF81E0D7DF58
S113012080E0E5DF80E0D7DF8BE0D1DF84E0CFDF64
S113013080E0DDDF80E0CFDF8CE0C9DF81E0C7DF76
S113014080E0D5CF0895CF93DF93D82FC62F80E0DA
S1130150C2DF8D2FBCDF8C2FBADF80E0C8DFDF91D8
S1130160CF9108950F931F93CF93DF93EC019923BD
S11301703CF4D195C195D1096AE084E0E4DF05C07F
S113018068EE73E03AD084E0DEDFCE0164E670E02E
S113019034D0CB010AE010E0B8012FD0682F83E0FF
S11301A0D2DFCE01B80129D0C82FCB01B80125D0A8
S11301B0682F82E0C8DF6C2F81E0C5DFDF91CF912B
S11301C01F910F91089581E087BB7ADF9BDFC1E027
S11301D080E081DF8C2F7BDF80E079DF80E087DFC8
S11301E0CF5FC530A9F788EE93E059DF88EE93E03E
S11301F056DF82ED94E0B6DFFFCF97FB072E16F4AF
S1130200009406D077FD08D00BD007FC05D03EF44F
S1130210909581959F4F0895709561957F4F0895AE
S1130220AA1BBB1B51E107C0AA1FBB1FA617B70718
S113023010F0A61BB70B881F991F5A95A9F7809534
S10F02409095BC01CD010895F894FFCF07
S9030000FC
