:1000000045C0000053C0000051C000004FC00000B8
:100010004DC000004BC0000049C0000047C00000B8
:1000200045C0000043C0000041C000003FC00000C8
:100030003DC000003BC0000039C0000037C00000D8
:1000400035C0000033C0000031C000002FC00000E8
:100050002DC000002BC0000029C0000027C00000F8
:1000600025C0000023C0000021C000001FC0000008
:100070001DC000001BC0000019C0000017C0000018
:1000800015C0000013C0000011C0000011241FBEE5
:10009000CFEFD0E1DEBFCDBF21E0A0E0B1E001C0F5
:1000A0001D92A030B207E1F720D053C0A9CF181697
:1000B00019066CF420E030E0E9EFF0E03197F1F759
:1000C00000C000002F5F3F4F28173907A9F7089598
:1000D0001BBC1ABC19BC18BC109279001092780095
:1000E00089EA8FBD8BE08EBD08958FEF87BBF0DF6F
:1000F00084E690E0DCDF22242A94312C08E710E02B
:10010000422C532C622C732CA22CB32C1DC0FBBC94
:10011000EABCC4019927F80191838083D9BDC8BD89
:1001200088E290E0C4DFF1E08F1A910880F7E1E007
:10013000CE1AD10828F0862C972CE601DD27E7CFD0
:1001400081E0A81AB10800F3C42CD52C7501FF2456
:06015000F2CFF894FFCF8E
:00000001FF
