S01300007765656B315F42372832292E73726563D9
S113000045C000004BC0000049C0000047C00000CC
S113001045C0000043C0000041C000003FC00000D4
S11300203DC000003BC0000039C0000037C00000E4
S113003035C0000033C0000031C000002FC00000F4
S11300402DC000002BC0000029C0000027C0000004
S113005025C0000023C0000021C000001FC0000014
S11300601DC000001BC0000019C0000017C0000024
S113007015C0000013C0000011C000000FC0000034
S11300800DC000000BC0000009C0000011241FBEF9
S1130090CFEFD0E1DEBFCDBF0CD033C0B1CF8FEFF7
S11300A082BB859B02C023C00895849BFACF15C0F0
S11300B0089511BAF4DFFC010995FDCF12BA869BAD
S11300C0FECFEDCF089584E082BB859B02C0F6CFBE
S11300D00895869BFACFE3CF089582E082BB849B88
S11300E002C0F1CF0895869BFACFD9CF089581E05D
S11300F082BB869B02C0D3CF0895849BFACFEDCFF9
S10901000895F894FFCFFE
S9030000FC
