:1000000045C0000053C0000052C0000072C0000094
:100010004DC000004BC0000049C0000047C00000B8
:1000200045C0000043C0000041C000003FC00000C8
:100030003DC000003BC0000039C0000037C00000D8
:1000400035C0000033C0000031C000002FC00000E8
:100050002DC000002BC0000029C0000027C00000F8
:1000600025C0000023C0000021C000001FC0000008
:100070001DC000001BC0000019C0000017C0000018
:1000800015C0000013C0000011C0000011241FBEE5
:10009000CFEFD0E1DEBFCDBF21E0A0E0B1E001C0F5
:1000A0001D92A130B207E1F747D050C0A9CF1F92EF
:1000B0000F920FB60F9211248F939F93809100019E
:1000C0008F5F893018F48093000102C01092000104
:1000D00081E090E00090000102C0880F991F0A940F
:1000E000E2F788BB9F918F910F900FBE0F901F90EA
:1000F00018951F920F920FB60F9211248F939F9312
:1001000080910001811104C088E08093000103C048
:1001100081508093000181E090E00090000102C0D6
:10012000880F991F0A94E2F788BB9F918F910F90D7
:100130000FBE0F901F90189511BA8FEF87BB88E202
:1001400080936A0086E089BF7894FFCFF894FFCF50
:00000001FF
