:1000000045C0000058C0000056C0000054C00000A9
:1000100052C0000050C000004EC000004CC00000A4
:100020004AC0000048C0000046C0000044C00000B4
:1000300042C0000040C000003EC000003CC00000C4
:100040003AC0000038C0000036C0000034C00000D4
:1000500032C0000030C000002EC000002CC00000E4
:100060002AC0000028C0000026C0000024C00000F4
:1000700022C0000020C000001EC000001CC0000004
:100080001AC0000018C0000016C0000011241FBED6
:10009000CFEFD0E1DEBFCDBF12E0A0E0B1E0E8EAF3
:1000A000F2E000E00BBF02C007900D92A032B10752
:1000B000D9F7D0D0F7C0A4CF1092710080E280931E
:1000C0007000089584EA80937400E4E7F0E0808192
:1000D0008823ECF708958093730084E8809374007C
:1000E000E4E7F0E080818823ECF7089518161906FC
:1000F0006CF420E030E0E9EFF0E03197F1F700C078
:1001000000002F5F3F4F28173907A9F708950F9375
:100110001F93CF93DF93C0E004E710E0D4E9D2DF70
:1001200080EED9DF8C2FD7DF80E0D5DFF801D083D8
:10013000CE5FC031A1F7DF91CF911F910F9108954C
:10014000CF93DF93D82FC62FBDDF80EEC4DF8D2F76
:10015000C2DF8C2FC0DF84E980937400DF91CF91E0
:1001600008958F929F92AF92BF92CF92DF92EF92BB
:10017000FF920F931F93CF93DF936894CC24C2F820
:10018000D12C6894EE24E6F8F12C00E410E0A12CC8
:10019000B12C88248A94912C31C0B801CE01D0DFD3
:1001A0008AEF90E0A3DF2296C031D105B1F70F3777
:1001B000110551F0C70199230CF401967C01F594C7
:1001C000E7940E0D1F1D02C0082D192DB801CE0198
:1001D000B7DF8AEF90E08ADF2297CE3F8FEFD80714
:1001E000A9F7C70199230CF401967C01F594E794D3
:1001F0000E0D1F1D81E0C81AD10819F0CA2DDB2D84
:10020000CCCF8CEA9DE072DFDF91CF911F910F91EF
:10021000FF90EF90DF90CF90BF90AF909F908F9026
:1002200008950F931F93CF93DF93C0E0D1E000E2D6
:1002300012E0688179818A819B8182DF8AEF90E078
:1002400055DF2496C017D107A1F7DF91CF911F91F9
:100250000F9108951F93CF93DF932EDF33DF80EE4E
:100260003ADF81E238DFC4E7D0E014E918832ADFFF
:1002700080EE31DF80EA2FDF188324DF80EE2BDF72
:1002800083EE29DF18831EDF80EE25DF81E823DF80
:1002900018833DDF66DFC5DF81E090E0DF91CF911D
:0802A0001F910895F894FFCFAF
:1002A800FF000000FF000200FF000400FF0006003E
:1002B800FF000800FF000A00FF000C00FF000E000E
:1002C8007F0000007F000200FF000400FF0006001E
:1002D800FF000800FF000A007F000C007F000E00EE
:1002E8007E0000007F000200FE000400FE00060001
:1002F800FE000800FE000A007F000C007E000E00D1
:100308007E0000007D000200FC000400FE000600E4
:10031800FE000800FC000A007D000C007E000E00B4
:100328007E00000079000200FC000400FA000600CC
:10033800FA000800FC000A0079000C007E000E009C
:100348007E00000071000200F4000400F2000600C4
:10035800F2000800F4000A0071000C007E000E0094
:100368007E00000061000200F4000400E2000600C4
:10037800E2000800F4000A0061000C007E000E0094
:100388005E00000061000200D4000400C200060004
:10039800C2000800D4000A0061000C005E000E00D4
:1003A8001E00000021000200D4000400C200060064
:1003B800C2000800D4000A0021000C001E000E0034
:00000001FF
