S00D00004465656C412E737265635C
S113000045C0000060C000005EC000005CC000008D
S11300105AC0000058C0000056C0000054C0000080
S113002052C00000B3C000004EC000004CC000002D
S11300304AC0000048C0000046C0000044C00000A0
S113004042C0000040C000003EC000003CC00000B0
S11300503AC0000038C0000036C0000034C00000C0
S113006032C0000030C000002EC000002CC00000D0
S11300702AC0000028C0000026C0000024C00000E0
S113008022C0000020C000001EC0000011241FBEBA
S1130090CFEFD0E1DEBFCDBF11E0A0E0B1E0E8E8F2
S11300A0F2E000E00BBF02C007900D92A030B10750
S11300B0D9F721E0A0E0B1E001C01D92A230B2075F
S11300C0E1F79AD0DFC09CCFAB9A89EF90E001971B
S11300D0F1F700C00000AB9889EF90E00197F1F7C9
S11300E000C000000895CF93C82F85BBEDDFC295F3
S11300F0C07FC5BBE9DFCF91089582E0F4CF0895B6
S11301008FEF84BB15BA80E285BBDEDF88E2EBDFCC
S11301108FE0E9DF86E0E7DF82E0E5CF0895CF9363
S1130120C82F85BBAA9AD0DFC295C07FC5BBAA9A47
S1130130CBDFCF910895CF93DF93EC01888188239F
S113014029F02196ECDF89918111FCCFDF91CF91C9
S11301500895CF93DF93CDB7DEB7C456D1090FB658
S1130160F894DEBF0FBECDBF4AE0BE016F5F7F4F84
S113017056D0CE010196DFDFCC59DF4F0FB6F8948D
S1130180DEBF0FBECDBFDF91CF9108951F920F92B6
S11301900FB60F9211240BB60F922F933F934F93E8
S11301A05F936F937F938F939F93AF93BF93EF93DB
S11301B0FF9313BC809100019091010101969093EB
S11301C001018093000199DF809100019091010168
S11301D0C0DFFF91EF91BF91AF919F918F917F917C
S11301E06F915F914F913F912F910F900BBE0F90A4
S11301F00FBE0F901F90189583DF8091000190919E
S11302000101A7DF85B5886285BD85B5876085BD99
S113021087B7806887BF81E083BD7894FFCFBB2711
S11302204A3031F4992322F4BDE2909581959F4F91
S113023001C0BB27FB015527AA27880F991FAA1FB6
S1130240A41710F0A41B83955051B9F7A05DAA33ED
S113025008F0A95DA193009779F7B111B1931192B8
S1130260CB0100C0DC01FC01672F71917723E1F71A
S1130270329704C07C916D9370836291AE17BF076F
S10B0280C8F30895F894FFCFC0
S9030000FC
