:1000000045C000004BC0000049C0000047C00000D0
:1000100045C0000043C0000041C000003FC00000D8
:100020003DC000003BC0000039C0000037C00000E8
:1000300035C0000033C0000031C000002FC00000F8
:100040002DC000002BC0000029C0000027C0000008
:1000500025C0000023C0000021C000001FC0000018
:100060001DC000001BC0000019C0000017C0000028
:1000700015C0000013C0000011C000000FC0000038
:100080000DC000000BC0000009C0000011241FBEFD
:10009000CFEFD0E1DEBFCDBF96D0DAC0B1CF18161A
:1000A00019066CF420E030E0E9EFF0E03197F1F769
:1000B00000C000002F5F3F4F28173907A9F70895A8
:1000C0008FEF87BBBB98C09A82E58DB908958FB931
:1000D000779BFECF089598B321E030E002C0220F55
:1000E000331F8A95E2F72095292328BB089598B3FA
:1000F00021E030E002C0220F331F8A95E2F7292B5E
:1001000028BB089580E0E7DF89E0E1DF8FEFDFDFE4
:1001100080E0EDDF80E0DFDF8AE0D9DF8FE0D7DF4E
:1001200080E0E5DF80E0D7DF8BE0D1DF83E0CFDF69
:1001300080E0DDDF80E0CFDF8CE0C9DF81E0C7DF7A
:1001400080E0D5CF0895CF93DF93D82FC62F80E0DE
:10015000C2DF8D2FBCDF8C2FBADF80E0C8DFDF91DC
:10016000CF9108950F931F93CF93DF93EC019923C1
:1001700034F068EE73E045D084E0E5DF06C0D19549
:10018000C195D1096AE084E0DEDFCE0164E670E06B
:1001900038D0CB010AE010E0B80133D0682F83E0FB
:1001A000D2DFCE01B8012DD0C82FCB01B80129D0A4
:1001B000682F82E0C8DF6C2F81E0C5DFDF91CF912F
:1001C0001F910F910895CF9381E087BB79DF9ADF6C
:1001D000C1E080E080DF8C2F7ADF80E078DF80E094
:1001E00086DFCF5FC530A9F788EE93E058DF8BE05C
:1001F0009FEFB8DF88EE93E052DF81E090E0CF918F
:10020000089597FB072E16F4009406D077FD08D0CA
:100210000BD007FC05D03EF4909581959F4F089533
:10022000709561957F4F0895AA1BBB1B51E107C0D4
:10023000AA1FBB1FA617B70710F0A61BB70B881F76
:10024000991F5A95A9F780959095BC01CD01089505
:04025000F894FFCF50
:00000001FF
